{
  "contractName": "ERC20Wallet",
  "abi": [
    {
      "anonymous": false,
      "inputs": [
        {
          "indexed": true,
          "internalType": "address",
          "name": "token",
          "type": "address"
        },
        {
          "indexed": true,
          "internalType": "address",
          "name": "to",
          "type": "address"
        },
        {
          "indexed": false,
          "internalType": "uint256",
          "name": "amount",
          "type": "uint256"
        }
      ],
      "name": "WalletSwept",
      "type": "event"
    },
    {
      "inputs": [
        {
          "internalType": "address",
          "name": "__owner",
          "type": "address"
        }
      ],
      "name": "initialize",
      "outputs": [],
      "stateMutability": "nonpayable",
      "type": "function"
    },
    {
      "inputs": [],
      "name": "owner",
      "outputs": [
        {
          "internalType": "address",
          "name": "",
          "type": "address"
        }
      ],
      "stateMutability": "view",
      "type": "function"
    },
    {
      "inputs": [
        {
          "internalType": "address",
          "name": "tokenAddress",
          "type": "address"
        }
      ],
      "name": "sweep",
      "outputs": [],
      "stateMutability": "nonpayable",
      "type": "function"
    }
  ],
  "bytecode": "0x608060405234801561001057600080fd5b506107ba806100206000396000f3fe608060405234801561001057600080fd5b50600436106100415760003560e01c806301681a62146100465780638da5cb5b14610062578063c4d66de814610080575b600080fd5b610060600480360381019061005b9190610471565b61009c565b005b61006a6102a4565b60405161007791906104ad565b60405180910390f35b61009a60048036038101906100959190610471565b6102cd565b005b60008054906101000a900473ffffffffffffffffffffffffffffffffffffffff1673ffffffffffffffffffffffffffffffffffffffff163373ffffffffffffffffffffffffffffffffffffffff161461012a576040517f08c379a00000000000000000000000000000000000000000000000000000000081526004016101219061054b565b60405180910390fd5b600081905060008173ffffffffffffffffffffffffffffffffffffffff166370a08231306040518263ffffffff1660e01b815260040161016a91906104ad565b602060405180830381865afa158015610187573d6000803e3d6000fd5b505050506040513d601f19601f820116820180604052508101906101ab91906105a1565b90508173ffffffffffffffffffffffffffffffffffffffff1663a9059cbb6101d16102a4565b836040518363ffffffff1660e01b81526004016101ef9291906105dd565b6020604051808303816000875af115801561020e573d6000803e3d6000fd5b505050506040513d601f19601f82011682018060405250810190610232919061063e565b5061023b6102a4565b73ffffffffffffffffffffffffffffffffffffffff168373ffffffffffffffffffffffffffffffffffffffff167ffece8da060adc40e7f670ede40759b99b3f1ab87e133eb475b1e00be10617fd083604051610297919061066b565b60405180910390a3505050565b60008060009054906101000a900473ffffffffffffffffffffffffffffffffffffffff16905090565b600073ffffffffffffffffffffffffffffffffffffffff1660008054906101000a900473ffffffffffffffffffffffffffffffffffffffff1673ffffffffffffffffffffffffffffffffffffffff161461035c576040517f08c379a0000000000000000000000000000000000000000000000000000000008152600401610353906106d2565b60405180910390fd5b600073ffffffffffffffffffffffffffffffffffffffff168173ffffffffffffffffffffffffffffffffffffffff16036103cb576040517f08c379a00000000000000000000000000000000000000000000000000000000081526004016103c290610764565b60405180910390fd5b806000806101000a81548173ffffffffffffffffffffffffffffffffffffffff021916908373ffffffffffffffffffffffffffffffffffffffff16021790555050565b600080fd5b600073ffffffffffffffffffffffffffffffffffffffff82169050919050565b600061043e82610413565b9050919050565b61044e81610433565b811461045957600080fd5b50565b60008135905061046b81610445565b92915050565b6000602082840312156104875761048661040e565b5b60006104958482850161045c565b91505092915050565b6104a781610433565b82525050565b60006020820190506104c2600083018461049e565b92915050565b600082825260208201905092915050565b7f455243323057616c6c65743a2063616c6c6572206973206e6f7420746865206f60008201527f776e657200000000000000000000000000000000000000000000000000000000602082015250565b60006105356024836104c8565b9150610540826104d9565b604082019050919050565b6000602082019050818103600083015261056481610528565b9050919050565b6000819050919050565b61057e8161056b565b811461058957600080fd5b50565b60008151905061059b81610575565b92915050565b6000602082840312156105b7576105b661040e565b5b60006105c58482850161058c565b91505092915050565b6105d78161056b565b82525050565b60006040820190506105f2600083018561049e565b6105ff60208301846105ce565b9392505050565b60008115159050919050565b61061b81610606565b811461062657600080fd5b50565b60008151905061063881610612565b92915050565b6000602082840312156106545761065361040e565b5b600061066284828501610629565b91505092915050565b600060208201905061068060008301846105ce565b92915050565b7f455243323057616c6c65743a20616c726561647920696e697469616c697a6564600082015250565b60006106bc6020836104c8565b91506106c782610686565b602082019050919050565b600060208201905081810360008301526106eb816106af565b9050919050565b7f455243323057616c6c65743a206f776e657220697320746865207a65726f206160008201527f6464726573730000000000000000000000000000000000000000000000000000602082015250565b600061074e6026836104c8565b9150610759826106f2565b604082019050919050565b6000602082019050818103600083015261077d81610741565b905091905056fea2646970667358221220075e74c533eaa0a5b140e27cc9c076f5e68b3437fb1f10314db33cc20fab2be564736f6c63430008110033",
  "immutableReferences": {},
  "source": "// SPDX-License-Identifier: MIT\npragma solidity >=0.4.22 <0.9.0;\n\nimport \"@openzeppelin/contracts/token/ERC20/ERC20.sol\";\n\ncontract ERC20Wallet {\n\n  address private _owner;\n\n  event WalletSwept(address indexed token, address indexed to, uint256 amount);\n\n  function initialize(address __owner) public {\n    require(_owner == address(0), \"ERC20Wallet: already initialized\");\n    require(__owner != address(0), \"ERC20Wallet: owner is the zero address\");\n    _owner = __owner;\n  }\n\n  function owner() public view returns (address) {\n    return _owner;\n  }\n\n  function sweep(address tokenAddress) public onlyOwner {\n    ERC20 token = ERC20(tokenAddress);\n    uint256 balance = token.balanceOf(address(this));\n    token.transfer(owner(), balance);\n    emit WalletSwept(tokenAddress, owner(), balance);\n  }\n\n  modifier onlyOwner() {\n    require(msg.sender == _owner, \"ERC20Wallet: caller is not the owner\");\n    _;\n  }\n}",
  "sourcePath": "/Users/enxtur/workspace/contracts/solidity/mega-wallet/contracts/ERC20Wallet.sol",
  "compiler": {
    "name": "solc",
    "version": "0.8.17+commit.8df45f5f.Emscripten.clang"
  },
  "schemaVersion": "3.4.11",
  "updatedAt": "2023-01-03T16:33:17.917Z",
  "devdoc": {
    "kind": "dev",
    "methods": {},
    "version": 1
  },
  "userdoc": {
    "kind": "user",
    "methods": {},
    "version": 1
  }
}